{
  "_format": "hh-sol-artifact-1",
  "contractName": "DecentralizedKhatabook",
  "sourceName": "contracts/DecentralizedKhatabook.sol",
  "abi": [
    {
      "anonymous": false,
      "inputs": [
        {
          "indexed": true,
          "internalType": "address",
          "name": "customerAddress",
          "type": "address"
        },
        {
          "indexed": false,
          "internalType": "string",
          "name": "name",
          "type": "string"
        },
        {
          "indexed": false,
          "internalType": "string",
          "name": "mobileNumber",
          "type": "string"
        }
      ],
      "name": "CustomerAdded",
      "type": "event"
    },
    {
      "anonymous": false,
      "inputs": [
        {
          "indexed": true,
          "internalType": "address",
          "name": "customerAddress",
          "type": "address"
        },
        {
          "indexed": false,
          "internalType": "int256",
          "name": "amount",
          "type": "int256"
        },
        {
          "indexed": false,
          "internalType": "string",
          "name": "description",
          "type": "string"
        }
      ],
      "name": "EntryAdded",
      "type": "event"
    },
    {
      "anonymous": false,
      "inputs": [
        {
          "indexed": true,
          "internalType": "address",
          "name": "customerAddress",
          "type": "address"
        },
        {
          "indexed": false,
          "internalType": "uint256",
          "name": "entryIndex",
          "type": "uint256"
        }
      ],
      "name": "EntrySettled",
      "type": "event"
    },
    {
      "anonymous": false,
      "inputs": [
        {
          "indexed": true,
          "internalType": "uint256",
          "name": "productId",
          "type": "uint256"
        },
        {
          "indexed": false,
          "internalType": "string",
          "name": "name",
          "type": "string"
        },
        {
          "indexed": false,
          "internalType": "uint256",
          "name": "quantity",
          "type": "uint256"
        },
        {
          "indexed": false,
          "internalType": "uint256",
          "name": "price",
          "type": "uint256"
        }
      ],
      "name": "ProductAdded",
      "type": "event"
    },
    {
      "anonymous": false,
      "inputs": [
        {
          "indexed": true,
          "internalType": "uint256",
          "name": "productId",
          "type": "uint256"
        },
        {
          "indexed": false,
          "internalType": "uint256",
          "name": "quantity",
          "type": "uint256"
        },
        {
          "indexed": false,
          "internalType": "uint256",
          "name": "price",
          "type": "uint256"
        }
      ],
      "name": "ProductUpdated",
      "type": "event"
    },
    {
      "inputs": [
        {
          "internalType": "address",
          "name": "_customerAddress",
          "type": "address"
        },
        {
          "internalType": "string",
          "name": "_name",
          "type": "string"
        },
        {
          "internalType": "string",
          "name": "_mobileNumber",
          "type": "string"
        }
      ],
      "name": "addCustomer",
      "outputs": [],
      "stateMutability": "nonpayable",
      "type": "function"
    },
    {
      "inputs": [
        {
          "internalType": "address",
          "name": "_customerAddress",
          "type": "address"
        },
        {
          "internalType": "int256",
          "name": "_amount",
          "type": "int256"
        },
        {
          "internalType": "string",
          "name": "_description",
          "type": "string"
        }
      ],
      "name": "addEntry",
      "outputs": [],
      "stateMutability": "nonpayable",
      "type": "function"
    },
    {
      "inputs": [
        {
          "internalType": "address",
          "name": "_customerAddress",
          "type": "address"
        },
        {
          "internalType": "int256",
          "name": "_amount",
          "type": "int256"
        },
        {
          "internalType": "string",
          "name": "_description",
          "type": "string"
        },
        {
          "internalType": "uint256",
          "name": "_productId",
          "type": "uint256"
        },
        {
          "internalType": "uint256",
          "name": "_quantity",
          "type": "uint256"
        }
      ],
      "name": "addEntryWithInventory",
      "outputs": [],
      "stateMutability": "nonpayable",
      "type": "function"
    },
    {
      "inputs": [
        {
          "internalType": "string",
          "name": "_name",
          "type": "string"
        },
        {
          "internalType": "string",
          "name": "_description",
          "type": "string"
        },
        {
          "internalType": "uint256",
          "name": "_quantity",
          "type": "uint256"
        },
        {
          "internalType": "uint256",
          "name": "_price",
          "type": "uint256"
        }
      ],
      "name": "addProduct",
      "outputs": [],
      "stateMutability": "nonpayable",
      "type": "function"
    },
    {
      "inputs": [
        {
          "internalType": "uint256",
          "name": "",
          "type": "uint256"
        }
      ],
      "name": "customerAddresses",
      "outputs": [
        {
          "internalType": "address",
          "name": "",
          "type": "address"
        }
      ],
      "stateMutability": "view",
      "type": "function"
    },
    {
      "inputs": [
        {
          "internalType": "address",
          "name": "",
          "type": "address"
        }
      ],
      "name": "customers",
      "outputs": [
        {
          "internalType": "string",
          "name": "name",
          "type": "string"
        },
        {
          "internalType": "bool",
          "name": "exists",
          "type": "bool"
        },
        {
          "internalType": "string",
          "name": "mobileNumber",
          "type": "string"
        }
      ],
      "stateMutability": "view",
      "type": "function"
    },
    {
      "inputs": [
        {
          "internalType": "address",
          "name": "",
          "type": "address"
        },
        {
          "internalType": "uint256",
          "name": "",
          "type": "uint256"
        }
      ],
      "name": "entries",
      "outputs": [
        {
          "internalType": "int256",
          "name": "amount",
          "type": "int256"
        },
        {
          "internalType": "string",
          "name": "description",
          "type": "string"
        },
        {
          "internalType": "uint256",
          "name": "timestamp",
          "type": "uint256"
        },
        {
          "internalType": "bool",
          "name": "settled",
          "type": "bool"
        }
      ],
      "stateMutability": "view",
      "type": "function"
    },
    {
      "inputs": [],
      "name": "getAllProducts",
      "outputs": [
        {
          "components": [
            {
              "internalType": "string",
              "name": "name",
              "type": "string"
            },
            {
              "internalType": "string",
              "name": "description",
              "type": "string"
            },
            {
              "internalType": "uint256",
              "name": "quantity",
              "type": "uint256"
            },
            {
              "internalType": "uint256",
              "name": "price",
              "type": "uint256"
            },
            {
              "internalType": "bool",
              "name": "exists",
              "type": "bool"
            }
          ],
          "internalType": "struct DecentralizedKhatabook.Product[]",
          "name": "",
          "type": "tuple[]"
        }
      ],
      "stateMutability": "view",
      "type": "function"
    },
    {
      "inputs": [
        {
          "internalType": "address",
          "name": "_customerAddress",
          "type": "address"
        }
      ],
      "name": "getBalance",
      "outputs": [
        {
          "internalType": "int256",
          "name": "balance",
          "type": "int256"
        }
      ],
      "stateMutability": "view",
      "type": "function"
    },
    {
      "inputs": [],
      "name": "getCustomerAddresses",
      "outputs": [
        {
          "internalType": "address[]",
          "name": "",
          "type": "address[]"
        }
      ],
      "stateMutability": "view",
      "type": "function"
    },
    {
      "inputs": [],
      "name": "getCustomers",
      "outputs": [
        {
          "components": [
            {
              "internalType": "string",
              "name": "name",
              "type": "string"
            },
            {
              "internalType": "bool",
              "name": "exists",
              "type": "bool"
            },
            {
              "internalType": "string",
              "name": "mobileNumber",
              "type": "string"
            }
          ],
          "internalType": "struct DecentralizedKhatabook.Customer[]",
          "name": "",
          "type": "tuple[]"
        }
      ],
      "stateMutability": "view",
      "type": "function"
    },
    {
      "inputs": [
        {
          "internalType": "address",
          "name": "_customerAddress",
          "type": "address"
        }
      ],
      "name": "getEntries",
      "outputs": [
        {
          "components": [
            {
              "internalType": "int256",
              "name": "amount",
              "type": "int256"
            },
            {
              "internalType": "string",
              "name": "description",
              "type": "string"
            },
            {
              "internalType": "uint256",
              "name": "timestamp",
              "type": "uint256"
            },
            {
              "internalType": "bool",
              "name": "settled",
              "type": "bool"
            }
          ],
          "internalType": "struct DecentralizedKhatabook.Entry[]",
          "name": "",
          "type": "tuple[]"
        }
      ],
      "stateMutability": "view",
      "type": "function"
    },
    {
      "inputs": [
        {
          "internalType": "uint256",
          "name": "_productId",
          "type": "uint256"
        }
      ],
      "name": "getProduct",
      "outputs": [
        {
          "components": [
            {
              "internalType": "string",
              "name": "name",
              "type": "string"
            },
            {
              "internalType": "string",
              "name": "description",
              "type": "string"
            },
            {
              "internalType": "uint256",
              "name": "quantity",
              "type": "uint256"
            },
            {
              "internalType": "uint256",
              "name": "price",
              "type": "uint256"
            },
            {
              "internalType": "bool",
              "name": "exists",
              "type": "bool"
            }
          ],
          "internalType": "struct DecentralizedKhatabook.Product",
          "name": "",
          "type": "tuple"
        }
      ],
      "stateMutability": "view",
      "type": "function"
    },
    {
      "inputs": [],
      "name": "productCount",
      "outputs": [
        {
          "internalType": "uint256",
          "name": "",
          "type": "uint256"
        }
      ],
      "stateMutability": "view",
      "type": "function"
    },
    {
      "inputs": [
        {
          "internalType": "uint256",
          "name": "",
          "type": "uint256"
        }
      ],
      "name": "products",
      "outputs": [
        {
          "internalType": "string",
          "name": "name",
          "type": "string"
        },
        {
          "internalType": "string",
          "name": "description",
          "type": "string"
        },
        {
          "internalType": "uint256",
          "name": "quantity",
          "type": "uint256"
        },
        {
          "internalType": "uint256",
          "name": "price",
          "type": "uint256"
        },
        {
          "internalType": "bool",
          "name": "exists",
          "type": "bool"
        }
      ],
      "stateMutability": "view",
      "type": "function"
    },
    {
      "inputs": [
        {
          "internalType": "address",
          "name": "_customerAddress",
          "type": "address"
        },
        {
          "internalType": "uint256",
          "name": "_entryIndex",
          "type": "uint256"
        }
      ],
      "name": "settleEntry",
      "outputs": [],
      "stateMutability": "nonpayable",
      "type": "function"
    },
    {
      "inputs": [
        {
          "internalType": "uint256",
          "name": "_productId",
          "type": "uint256"
        },
        {
          "internalType": "uint256",
          "name": "_quantity",
          "type": "uint256"
        },
        {
          "internalType": "uint256",
          "name": "_price",
          "type": "uint256"
        }
      ],
      "name": "updateProduct",
      "outputs": [],
      "stateMutability": "nonpayable",
      "type": "function"
    }
  ],
  "bytecode": "0x608060405234801561001057600080fd5b5061352e806100206000396000f3fe608060405234801561001057600080fd5b506004361061010b5760003560e01c8063b877e3a8116100a2578063e0f6ef8711610071578063e0f6ef87146102e5578063eae6980914610303578063f1ba71271461031f578063f85292ca1461033d578063f8b2cb4f146103595761010b565b8063b877e3a81461025f578063b9db15b41461027b578063bcb8b231146102ab578063c0ff6054146102c75761010b565b806353b65d40116100de57806353b65d40146101ac5780635608b2e1146101df5780637acc0b201461020f57806386e9e34b146102435761010b565b806301cecd141461011057806302ee3a521461012c578063336989ae1461014a5780633a47c4601461017c575b600080fd5b61012a60048036038101906101259190612062565b610389565b005b61013461050e565b60405161014191906122e9565b60405180910390f35b610164600480360381019061015f9190612369565b61075a565b604051610173939291906123ef565b60405180910390f35b61019660048036038101906101919190612434565b6108a1565b6040516101a39190612470565b60405180910390f35b6101c660048036038101906101c1919061248b565b6108e0565b6040516101d694939291906124f3565b60405180910390f35b6101f960048036038101906101f49190612369565b6109c2565b6040516102069190612673565b60405180910390f35b61022960048036038101906102249190612434565b610baf565b60405161023a959493929190612695565b60405180910390f35b61025d6004803603810190610258919061248b565b610d02565b005b61027960048036038101906102749190612722565b610ee0565b005b61029560048036038101906102909190612434565b61109b565b6040516102a2919061280e565b60405180910390f35b6102c560048036038101906102c09190612830565b61127e565b005b6102cf611567565b6040516102dc9190612979565b60405180910390f35b6102ed6115f5565b6040516102fa919061299b565b60405180910390f35b61031d600480360381019061031891906129b6565b6115fb565b005b6103276118a1565b6040516103349190612b66565b60405180910390f35b61035760048036038101906103529190612b88565b611b09565b005b610373600480360381019061036e9190612369565b611c24565b6040516103809190612bdb565b60405180910390f35b60008451116103cd576040517f08c379a00000000000000000000000000000000000000000000000000000000081526004016103c490612c42565b60405180910390fd5b60008111610410576040517f08c379a000000000000000000000000000000000000000000000000000000000815260040161040790612cae565b60405180910390fd5b6003600081548092919061042390612cfd565b91905055506040518060a0016040528085815260200184815260200183815260200182815260200160011515815250600260006003548152602001908152602001600020600082015181600001908161047c9190612f51565b5060208201518160010190816104929190612f51565b50604082015181600201556060820151816003015560808201518160040160006101000a81548160ff0219169083151502179055509050506003547f0107e99fb43ba873db8a5ce7c34a12cd44cd3041167cff32040ddb6aca455ae685848460405161050093929190613023565b60405180910390a250505050565b6060600060035467ffffffffffffffff81111561052e5761052d611f01565b5b60405190808252806020026020018201604052801561056757816020015b610554611e7e565b81526020019060019003908161054c5790505b5090506000600190505b6003548111610752576002600082815260200190815260200160002060040160009054906101000a900460ff161561073f57600260008281526020019081526020016000206040518060a00160405290816000820180546105d190612d74565b80601f01602080910402602001604051908101604052809291908181526020018280546105fd90612d74565b801561064a5780601f1061061f5761010080835404028352916020019161064a565b820191906000526020600020905b81548152906001019060200180831161062d57829003601f168201915b5050505050815260200160018201805461066390612d74565b80601f016020809104026020016040519081016040528092919081815260200182805461068f90612d74565b80156106dc5780601f106106b1576101008083540402835291602001916106dc565b820191906000526020600020905b8154815290600101906020018083116106bf57829003601f168201915b5050505050815260200160028201548152602001600382015481526020016004820160009054906101000a900460ff161515151581525050826001836107229190613061565b8151811061073357610732613095565b5b60200260200101819052505b808061074a90612cfd565b915050610571565b508091505090565b600060205280600052604060002060009150905080600001805461077d90612d74565b80601f01602080910402602001604051908101604052809291908181526020018280546107a990612d74565b80156107f65780601f106107cb576101008083540402835291602001916107f6565b820191906000526020600020905b8154815290600101906020018083116107d957829003601f168201915b5050505050908060010160009054906101000a900460ff169080600201805461081e90612d74565b80601f016020809104026020016040519081016040528092919081815260200182805461084a90612d74565b80156108975780601f1061086c57610100808354040283529160200191610897565b820191906000526020600020905b81548152906001019060200180831161087a57829003601f168201915b5050505050905083565b600481815481106108b157600080fd5b906000526020600020016000915054906101000a900473ffffffffffffffffffffffffffffffffffffffff1681565b600160205281600052604060002081815481106108fc57600080fd5b90600052602060002090600402016000915091505080600001549080600101805461092690612d74565b80601f016020809104026020016040519081016040528092919081815260200182805461095290612d74565b801561099f5780601f106109745761010080835404028352916020019161099f565b820191906000526020600020905b81548152906001019060200180831161098257829003601f168201915b5050505050908060020154908060030160009054906101000a900460ff16905084565b60606000808373ffffffffffffffffffffffffffffffffffffffff1673ffffffffffffffffffffffffffffffffffffffff16815260200190815260200160002060010160009054906101000a900460ff16610a52576040517f08c379a0000000000000000000000000000000000000000000000000000000008152600401610a4990613110565b60405180910390fd5b600160008373ffffffffffffffffffffffffffffffffffffffff1673ffffffffffffffffffffffffffffffffffffffff168152602001908152602001600020805480602002602001604051908101604052809291908181526020016000905b82821015610ba4578382906000526020600020906004020160405180608001604052908160008201548152602001600182018054610aee90612d74565b80601f0160208091040260200160405190810160405280929190818152602001828054610b1a90612d74565b8015610b675780601f10610b3c57610100808354040283529160200191610b67565b820191906000526020600020905b815481529060010190602001808311610b4a57829003601f168201915b50505050508152602001600282015481526020016003820160009054906101000a900460ff16151515158152505081526020019060010190610ab1565b505050509050919050565b6002602052806000526040600020600091509050806000018054610bd290612d74565b80601f0160208091040260200160405190810160405280929190818152602001828054610bfe90612d74565b8015610c4b5780601f10610c2057610100808354040283529160200191610c4b565b820191906000526020600020905b815481529060010190602001808311610c2e57829003601f168201915b505050505090806001018054610c6090612d74565b80601f0160208091040260200160405190810160405280929190818152602001828054610c8c90612d74565b8015610cd95780601f10610cae57610100808354040283529160200191610cd9565b820191906000526020600020905b815481529060010190602001808311610cbc57829003601f168201915b5050505050908060020154908060030154908060040160009054906101000a900460ff16905085565b6000808373ffffffffffffffffffffffffffffffffffffffff1673ffffffffffffffffffffffffffffffffffffffff16815260200190815260200160002060010160009054906101000a900460ff16610d90576040517f08c379a0000000000000000000000000000000000000000000000000000000008152600401610d8790613110565b60405180910390fd5b600160008373ffffffffffffffffffffffffffffffffffffffff1673ffffffffffffffffffffffffffffffffffffffff168152602001908152602001600020805490508110610e14576040517f08c379a0000000000000000000000000000000000000000000000000000000008152600401610e0b9061317c565b60405180910390fd5b60018060008473ffffffffffffffffffffffffffffffffffffffff1673ffffffffffffffffffffffffffffffffffffffff1681526020019081526020016000208281548110610e6657610e65613095565b5b906000526020600020906004020160030160006101000a81548160ff0219169083151502179055508173ffffffffffffffffffffffffffffffffffffffff167fb97bec2952c7b1f2062172cff1b1aa6f76774a9a2d722a9378f11ebe0febeca782604051610ed4919061299b565b60405180910390a25050565b6000808473ffffffffffffffffffffffffffffffffffffffff1673ffffffffffffffffffffffffffffffffffffffff16815260200190815260200160002060010160009054906101000a900460ff16610f6e576040517f08c379a0000000000000000000000000000000000000000000000000000000008152600401610f6590613110565b60405180910390fd5b600160008473ffffffffffffffffffffffffffffffffffffffff1673ffffffffffffffffffffffffffffffffffffffff16815260200190815260200160002060405180608001604052808481526020018381526020014281526020016000151581525090806001815401808255809150506001900390600052602060002090600402016000909190919091506000820151816000015560208201518160010190816110199190612f51565b506040820151816002015560608201518160030160006101000a81548160ff02191690831515021790555050508273ffffffffffffffffffffffffffffffffffffffff167feb9a02ff500845b62ad15f8cda533b7c433bb01709bfead120b1e41bf2eb3873838360405161108e92919061319c565b60405180910390a2505050565b6110a3611e7e565b6002600083815260200190815260200160002060040160009054906101000a900460ff16611106576040517f08c379a00000000000000000000000000000000000000000000000000000000081526004016110fd90613218565b60405180910390fd5b600260008381526020019081526020016000206040518060a001604052908160008201805461113490612d74565b80601f016020809104026020016040519081016040528092919081815260200182805461116090612d74565b80156111ad5780601f10611182576101008083540402835291602001916111ad565b820191906000526020600020905b81548152906001019060200180831161119057829003601f168201915b505050505081526020016001820180546111c690612d74565b80601f01602080910402602001604051908101604052809291908181526020018280546111f290612d74565b801561123f5780601f106112145761010080835404028352916020019161123f565b820191906000526020600020905b81548152906001019060200180831161122257829003601f168201915b5050505050815260200160028201548152602001600382015481526020016004820160009054906101000a900460ff1615151515815250509050919050565b6000808473ffffffffffffffffffffffffffffffffffffffff1673ffffffffffffffffffffffffffffffffffffffff16815260200190815260200160002060010160009054906101000a900460ff161561130d576040517f08c379a000000000000000000000000000000000000000000000000000000000815260040161130490613284565b60405180910390fd5b600073ffffffffffffffffffffffffffffffffffffffff168373ffffffffffffffffffffffffffffffffffffffff160361137c576040517f08c379a0000000000000000000000000000000000000000000000000000000008152600401611373906132f0565b60405180910390fd5b60008251116113c0576040517f08c379a00000000000000000000000000000000000000000000000000000000081526004016113b79061335c565b60405180910390fd5b600a815114611404576040517f08c379a00000000000000000000000000000000000000000000000000000000081526004016113fb906133c8565b60405180910390fd5b6040518060600160405280838152602001600115158152602001828152506000808573ffffffffffffffffffffffffffffffffffffffff1673ffffffffffffffffffffffffffffffffffffffff16815260200190815260200160002060008201518160000190816114759190612f51565b5060208201518160010160006101000a81548160ff02191690831515021790555060408201518160020190816114ab9190612f51565b509050506004839080600181540180825580915050600190039060005260206000200160009091909190916101000a81548173ffffffffffffffffffffffffffffffffffffffff021916908373ffffffffffffffffffffffffffffffffffffffff1602179055508273ffffffffffffffffffffffffffffffffffffffff167f77eacb4962819f791ebd2750d7be9519622ddcf4c37fe09c6fd33ace5ce32ccb838360405161155a9291906133e8565b60405180910390a2505050565b606060048054806020026020016040519081016040528092919081815260200182805480156115eb57602002820191906000526020600020905b8160009054906101000a900473ffffffffffffffffffffffffffffffffffffffff1673ffffffffffffffffffffffffffffffffffffffff16815260200190600101908083116115a1575b5050505050905090565b60035481565b6000808673ffffffffffffffffffffffffffffffffffffffff1673ffffffffffffffffffffffffffffffffffffffff16815260200190815260200160002060010160009054906101000a900460ff16611689576040517f08c379a000000000000000000000000000000000000000000000000000000000815260040161168090613110565b60405180910390fd5b6002600083815260200190815260200160002060040160009054906101000a900460ff166116ec576040517f08c379a00000000000000000000000000000000000000000000000000000000081526004016116e390613218565b60405180910390fd5b8060026000848152602001908152602001600020600201541015611745576040517f08c379a000000000000000000000000000000000000000000000000000000000815260040161173c9061346b565b60405180910390fd5b8060026000848152602001908152602001600020600201600082825461176b9190613061565b92505081905550600160008673ffffffffffffffffffffffffffffffffffffffff1673ffffffffffffffffffffffffffffffffffffffff168152602001908152602001600020604051806080016040528086815260200185815260200142815260200160001515815250908060018154018082558091505060019003906000526020600020906004020160009091909190915060008201518160000155602082015181600101908161181d9190612f51565b506040820151816002015560608201518160030160006101000a81548160ff02191690831515021790555050508473ffffffffffffffffffffffffffffffffffffffff167feb9a02ff500845b62ad15f8cda533b7c433bb01709bfead120b1e41bf2eb3873858560405161189292919061319c565b60405180910390a25050505050565b6060600060048054905067ffffffffffffffff8111156118c4576118c3611f01565b5b6040519080825280602002602001820160405280156118fd57816020015b6118ea611eaf565b8152602001906001900390816118e25790505b50905060005b600480549050811015611b01576000806004838154811061192757611926613095565b5b9060005260206000200160009054906101000a900473ffffffffffffffffffffffffffffffffffffffff1673ffffffffffffffffffffffffffffffffffffffff1673ffffffffffffffffffffffffffffffffffffffff1681526020019081526020016000206040518060600160405290816000820180546119a790612d74565b80601f01602080910402602001604051908101604052809291908181526020018280546119d390612d74565b8015611a205780601f106119f557610100808354040283529160200191611a20565b820191906000526020600020905b815481529060010190602001808311611a0357829003601f168201915b505050505081526020016001820160009054906101000a900460ff16151515158152602001600282018054611a5490612d74565b80601f0160208091040260200160405190810160405280929190818152602001828054611a8090612d74565b8015611acd5780601f10611aa257610100808354040283529160200191611acd565b820191906000526020600020905b815481529060010190602001808311611ab057829003601f168201915b505050505081525050828281518110611ae957611ae8613095565b5b60200260200101819052508080600101915050611903565b508091505090565b6002600084815260200190815260200160002060040160009054906101000a900460ff16611b6c576040517f08c379a0000000000000000000000000000000000000000000000000000000008152600401611b6390613218565b60405180910390fd5b60008111611baf576040517f08c379a0000000000000000000000000000000000000000000000000000000008152600401611ba690612cae565b60405180910390fd5b816002600085815260200190815260200160002060020181905550806002600085815260200190815260200160002060030181905550827fc598db734b93c7fd9412e07c1e464ebb4d3dcf9b02c03af26710b307f8b773db8383604051611c1792919061348b565b60405180910390a2505050565b60008060008373ffffffffffffffffffffffffffffffffffffffff1673ffffffffffffffffffffffffffffffffffffffff16815260200190815260200160002060010160009054906101000a900460ff16611cb4576040517f08c379a0000000000000000000000000000000000000000000000000000000008152600401611cab90613110565b60405180910390fd5b6000600160008473ffffffffffffffffffffffffffffffffffffffff1673ffffffffffffffffffffffffffffffffffffffff168152602001908152602001600020805480602002602001604051908101604052809291908181526020016000905b82821015611e08578382906000526020600020906004020160405180608001604052908160008201548152602001600182018054611d5290612d74565b80601f0160208091040260200160405190810160405280929190818152602001828054611d7e90612d74565b8015611dcb5780601f10611da057610100808354040283529160200191611dcb565b820191906000526020600020905b815481529060010190602001808311611dae57829003601f168201915b50505050508152602001600282015481526020016003820160009054906101000a900460ff16151515158152505081526020019060010190611d15565b50505050905060005b8151811015611e7757818181518110611e2d57611e2c613095565b5b602002602001015160600151611e6a57818181518110611e5057611e4f613095565b5b60200260200101516000015183611e6791906134b4565b92505b8080600101915050611e11565b5050919050565b6040518060a00160405280606081526020016060815260200160008152602001600081526020016000151581525090565b604051806060016040528060608152602001600015158152602001606081525090565b6000604051905090565b600080fd5b600080fd5b600080fd5b600080fd5b6000601f19601f8301169050919050565b7f4e487b7100000000000000000000000000000000000000000000000000000000600052604160045260246000fd5b611f3982611ef0565b810181811067ffffffffffffffff82111715611f5857611f57611f01565b5b80604052505050565b6000611f6b611ed2565b9050611f778282611f30565b919050565b600067ffffffffffffffff821115611f9757611f96611f01565b5b611fa082611ef0565b9050602081019050919050565b82818337600083830152505050565b6000611fcf611fca84611f7c565b611f61565b905082815260208101848484011115611feb57611fea611eeb565b5b611ff6848285611fad565b509392505050565b600082601f83011261201357612012611ee6565b5b8135612023848260208601611fbc565b91505092915050565b6000819050919050565b61203f8161202c565b811461204a57600080fd5b50565b60008135905061205c81612036565b92915050565b6000806000806080858703121561207c5761207b611edc565b5b600085013567ffffffffffffffff81111561209a57612099611ee1565b5b6120a687828801611ffe565b945050602085013567ffffffffffffffff8111156120c7576120c6611ee1565b5b6120d387828801611ffe565b93505060406120e48782880161204d565b92505060606120f58782880161204d565b91505092959194509250565b600081519050919050565b600082825260208201905092915050565b6000819050602082019050919050565b600081519050919050565b600082825260208201905092915050565b60005b8381101561216757808201518184015260208101905061214c565b60008484015250505050565b600061217e8261212d565b6121888185612138565b9350612198818560208601612149565b6121a181611ef0565b840191505092915050565b6121b58161202c565b82525050565b60008115159050919050565b6121d0816121bb565b82525050565b600060a08301600083015184820360008601526121f38282612173565b9150506020830151848203602086015261220d8282612173565b915050604083015161222260408601826121ac565b50606083015161223560608601826121ac565b50608083015161224860808601826121c7565b508091505092915050565b600061225f83836121d6565b905092915050565b6000602082019050919050565b600061227f82612101565b612289818561210c565b93508360208202850161229b8561211d565b8060005b858110156122d757848403895281516122b88582612253565b94506122c383612267565b925060208a0199505060018101905061229f565b50829750879550505050505092915050565b600060208201905081810360008301526123038184612274565b905092915050565b600073ffffffffffffffffffffffffffffffffffffffff82169050919050565b60006123368261230b565b9050919050565b6123468161232b565b811461235157600080fd5b50565b6000813590506123638161233d565b92915050565b60006020828403121561237f5761237e611edc565b5b600061238d84828501612354565b91505092915050565b600082825260208201905092915050565b60006123b28261212d565b6123bc8185612396565b93506123cc818560208601612149565b6123d581611ef0565b840191505092915050565b6123e9816121bb565b82525050565b6000606082019050818103600083015261240981866123a7565b905061241860208301856123e0565b818103604083015261242a81846123a7565b9050949350505050565b60006020828403121561244a57612449611edc565b5b60006124588482850161204d565b91505092915050565b61246a8161232b565b82525050565b60006020820190506124856000830184612461565b92915050565b600080604083850312156124a2576124a1611edc565b5b60006124b085828601612354565b92505060206124c18582860161204d565b9150509250929050565b6000819050919050565b6124de816124cb565b82525050565b6124ed8161202c565b82525050565b600060808201905061250860008301876124d5565b818103602083015261251a81866123a7565b905061252960408301856124e4565b61253660608301846123e0565b95945050505050565b600081519050919050565b600082825260208201905092915050565b6000819050602082019050919050565b612574816124cb565b82525050565b6000608083016000830151612592600086018261256b565b50602083015184820360208601526125aa8282612173565b91505060408301516125bf60408601826121ac565b5060608301516125d260608601826121c7565b508091505092915050565b60006125e9838361257a565b905092915050565b6000602082019050919050565b60006126098261253f565b612613818561254a565b9350836020820285016126258561255b565b8060005b85811015612661578484038952815161264285826125dd565b945061264d836125f1565b925060208a01995050600181019050612629565b50829750879550505050505092915050565b6000602082019050818103600083015261268d81846125fe565b905092915050565b600060a08201905081810360008301526126af81886123a7565b905081810360208301526126c381876123a7565b90506126d260408301866124e4565b6126df60608301856124e4565b6126ec60808301846123e0565b9695505050505050565b6126ff816124cb565b811461270a57600080fd5b50565b60008135905061271c816126f6565b92915050565b60008060006060848603121561273b5761273a611edc565b5b600061274986828701612354565b935050602061275a8682870161270d565b925050604084013567ffffffffffffffff81111561277b5761277a611ee1565b5b61278786828701611ffe565b9150509250925092565b600060a08301600083015184820360008601526127ae8282612173565b915050602083015184820360208601526127c88282612173565b91505060408301516127dd60408601826121ac565b5060608301516127f060608601826121ac565b50608083015161280360808601826121c7565b508091505092915050565b600060208201905081810360008301526128288184612791565b905092915050565b60008060006060848603121561284957612848611edc565b5b600061285786828701612354565b935050602084013567ffffffffffffffff81111561287857612877611ee1565b5b61288486828701611ffe565b925050604084013567ffffffffffffffff8111156128a5576128a4611ee1565b5b6128b186828701611ffe565b9150509250925092565b600081519050919050565b600082825260208201905092915050565b6000819050602082019050919050565b6128f08161232b565b82525050565b600061290283836128e7565b60208301905092915050565b6000602082019050919050565b6000612926826128bb565b61293081856128c6565b935061293b836128d7565b8060005b8381101561296c57815161295388826128f6565b975061295e8361290e565b92505060018101905061293f565b5085935050505092915050565b60006020820190508181036000830152612993818461291b565b905092915050565b60006020820190506129b060008301846124e4565b92915050565b600080600080600060a086880312156129d2576129d1611edc565b5b60006129e088828901612354565b95505060206129f18882890161270d565b945050604086013567ffffffffffffffff811115612a1257612a11611ee1565b5b612a1e88828901611ffe565b9350506060612a2f8882890161204d565b9250506080612a408882890161204d565b9150509295509295909350565b600081519050919050565b600082825260208201905092915050565b6000819050602082019050919050565b60006060830160008301518482036000860152612a968282612173565b9150506020830151612aab60208601826121c7565b5060408301518482036040860152612ac38282612173565b9150508091505092915050565b6000612adc8383612a79565b905092915050565b6000602082019050919050565b6000612afc82612a4d565b612b068185612a58565b935083602082028501612b1885612a69565b8060005b85811015612b545784840389528151612b358582612ad0565b9450612b4083612ae4565b925060208a01995050600181019050612b1c565b50829750879550505050505092915050565b60006020820190508181036000830152612b808184612af1565b905092915050565b600080600060608486031215612ba157612ba0611edc565b5b6000612baf8682870161204d565b9350506020612bc08682870161204d565b9250506040612bd18682870161204d565b9150509250925092565b6000602082019050612bf060008301846124d5565b92915050565b7f50726f64756374206e616d652063616e6e6f7420626520656d70747900000000600082015250565b6000612c2c601c83612396565b9150612c3782612bf6565b602082019050919050565b60006020820190508181036000830152612c5b81612c1f565b9050919050565b7f5072696365206d7573742062652067726561746572207468616e203000000000600082015250565b6000612c98601c83612396565b9150612ca382612c62565b602082019050919050565b60006020820190508181036000830152612cc781612c8b565b9050919050565b7f4e487b7100000000000000000000000000000000000000000000000000000000600052601160045260246000fd5b6000612d088261202c565b91507fffffffffffffffffffffffffffffffffffffffffffffffffffffffffffffffff8203612d3a57612d39612cce565b5b600182019050919050565b7f4e487b7100000000000000000000000000000000000000000000000000000000600052602260045260246000fd5b60006002820490506001821680612d8c57607f821691505b602082108103612d9f57612d9e612d45565b5b50919050565b60008190508160005260206000209050919050565b60006020601f8301049050919050565b600082821b905092915050565b600060088302612e077fffffffffffffffffffffffffffffffffffffffffffffffffffffffffffffffff82612dca565b612e118683612dca565b95508019841693508086168417925050509392505050565b6000819050919050565b6000612e4e612e49612e448461202c565b612e29565b61202c565b9050919050565b6000819050919050565b612e6883612e33565b612e7c612e7482612e55565b848454612dd7565b825550505050565b600090565b612e91612e84565b612e9c818484612e5f565b505050565b5b81811015612ec057612eb5600082612e89565b600181019050612ea2565b5050565b601f821115612f0557612ed681612da5565b612edf84612dba565b81016020851015612eee578190505b612f02612efa85612dba565b830182612ea1565b50505b505050565b600082821c905092915050565b6000612f2860001984600802612f0a565b1980831691505092915050565b6000612f418383612f17565b9150826002028217905092915050565b612f5a8261212d565b67ffffffffffffffff811115612f7357612f72611f01565b5b612f7d8254612d74565b612f88828285612ec4565b600060209050601f831160018114612fbb5760008415612fa9578287015190505b612fb38582612f35565b86555061301b565b601f198416612fc986612da5565b60005b82811015612ff157848901518255600182019150602085019450602081019050612fcc565b8683101561300e578489015161300a601f891682612f17565b8355505b6001600288020188555050505b505050505050565b6000606082019050818103600083015261303d81866123a7565b905061304c60208301856124e4565b61305960408301846124e4565b949350505050565b600061306c8261202c565b91506130778361202c565b925082820390508181111561308f5761308e612cce565b5b92915050565b7f4e487b7100000000000000000000000000000000000000000000000000000000600052603260045260246000fd5b7f437573746f6d657220646f6573206e6f74206578697374000000000000000000600082015250565b60006130fa601783612396565b9150613105826130c4565b602082019050919050565b60006020820190508181036000830152613129816130ed565b9050919050565b7f496e76616c696420656e74727920696e64657800000000000000000000000000600082015250565b6000613166601383612396565b915061317182613130565b602082019050919050565b6000602082019050818103600083015261319581613159565b9050919050565b60006040820190506131b160008301856124d5565b81810360208301526131c381846123a7565b90509392505050565b7f50726f6475637420646f6573206e6f7420657869737400000000000000000000600082015250565b6000613202601683612396565b915061320d826131cc565b602082019050919050565b60006020820190508181036000830152613231816131f5565b9050919050565b7f437573746f6d657220616c726561647920657869737473000000000000000000600082015250565b600061326e601783612396565b915061327982613238565b602082019050919050565b6000602082019050818103600083015261329d81613261565b9050919050565b7f496e76616c696420637573746f6d657220616464726573730000000000000000600082015250565b60006132da601883612396565b91506132e5826132a4565b602082019050919050565b60006020820190508181036000830152613309816132cd565b9050919050565b7f4e616d652063616e6e6f7420626520656d707479000000000000000000000000600082015250565b6000613346601483612396565b915061335182613310565b602082019050919050565b6000602082019050818103600083015261337581613339565b9050919050565b7f4d6f62696c65206e756d626572206d7573742062652031302064696769747300600082015250565b60006133b2601f83612396565b91506133bd8261337c565b602082019050919050565b600060208201905081810360008301526133e1816133a5565b9050919050565b6000604082019050818103600083015261340281856123a7565b9050818103602083015261341681846123a7565b90509392505050565b7f496e73756666696369656e7420696e76656e746f727900000000000000000000600082015250565b6000613455601683612396565b91506134608261341f565b602082019050919050565b6000602082019050818103600083015261348481613448565b9050919050565b60006040820190506134a060008301856124e4565b6134ad60208301846124e4565b9392505050565b60006134bf826124cb565b91506134ca836124cb565b9250828201905082811215600083121683821260008412151617156134f2576134f1612cce565b5b9291505056fea26469706673582212201e09bac34f732e655b879be6cf44324967cf57e3a8a09d3817c07692f267899964736f6c63430008180033",
  "linkReferences": {},
  "deployedLinkReferences": {}
}