{
  "_format": "hh-sol-artifact-1",
  "contractName": "DecentralizedKhatabook",
  "sourceName": "contracts/DecentralizedKhatabook.sol",
  "abi": [
    {
      "anonymous": false,
      "inputs": [
        {
          "indexed": true,
          "internalType": "address",
          "name": "customerAddress",
          "type": "address"
        },
        {
          "indexed": false,
          "internalType": "string",
          "name": "name",
          "type": "string"
        },
        {
          "indexed": false,
          "internalType": "string",
          "name": "mobileNumber",
          "type": "string"
        }
      ],
      "name": "CustomerAdded",
      "type": "event"
    },
    {
      "anonymous": false,
      "inputs": [
        {
          "indexed": true,
          "internalType": "address",
          "name": "customerAddress",
          "type": "address"
        },
        {
          "indexed": false,
          "internalType": "int256",
          "name": "amount",
          "type": "int256"
        },
        {
          "indexed": false,
          "internalType": "string",
          "name": "description",
          "type": "string"
        }
      ],
      "name": "EntryAdded",
      "type": "event"
    },
    {
      "anonymous": false,
      "inputs": [
        {
          "indexed": true,
          "internalType": "address",
          "name": "customerAddress",
          "type": "address"
        },
        {
          "indexed": false,
          "internalType": "uint256",
          "name": "entryIndex",
          "type": "uint256"
        }
      ],
      "name": "EntrySettled",
      "type": "event"
    },
    {
      "inputs": [
        {
          "internalType": "address",
          "name": "_customerAddress",
          "type": "address"
        },
        {
          "internalType": "string",
          "name": "_name",
          "type": "string"
        },
        {
          "internalType": "string",
          "name": "_mobileNumber",
          "type": "string"
        }
      ],
      "name": "addCustomer",
      "outputs": [],
      "stateMutability": "nonpayable",
      "type": "function"
    },
    {
      "inputs": [
        {
          "internalType": "address",
          "name": "_customerAddress",
          "type": "address"
        },
        {
          "internalType": "int256",
          "name": "_amount",
          "type": "int256"
        },
        {
          "internalType": "string",
          "name": "_description",
          "type": "string"
        }
      ],
      "name": "addEntry",
      "outputs": [],
      "stateMutability": "nonpayable",
      "type": "function"
    },
    {
      "inputs": [
        {
          "internalType": "uint256",
          "name": "",
          "type": "uint256"
        }
      ],
      "name": "customerAddresses",
      "outputs": [
        {
          "internalType": "address",
          "name": "",
          "type": "address"
        }
      ],
      "stateMutability": "view",
      "type": "function"
    },
    {
      "inputs": [
        {
          "internalType": "address",
          "name": "",
          "type": "address"
        }
      ],
      "name": "customers",
      "outputs": [
        {
          "internalType": "string",
          "name": "name",
          "type": "string"
        },
        {
          "internalType": "bool",
          "name": "exists",
          "type": "bool"
        },
        {
          "internalType": "string",
          "name": "mobileNumber",
          "type": "string"
        }
      ],
      "stateMutability": "view",
      "type": "function"
    },
    {
      "inputs": [
        {
          "internalType": "address",
          "name": "",
          "type": "address"
        },
        {
          "internalType": "uint256",
          "name": "",
          "type": "uint256"
        }
      ],
      "name": "entries",
      "outputs": [
        {
          "internalType": "int256",
          "name": "amount",
          "type": "int256"
        },
        {
          "internalType": "string",
          "name": "description",
          "type": "string"
        },
        {
          "internalType": "uint256",
          "name": "timestamp",
          "type": "uint256"
        },
        {
          "internalType": "bool",
          "name": "settled",
          "type": "bool"
        }
      ],
      "stateMutability": "view",
      "type": "function"
    },
    {
      "inputs": [
        {
          "internalType": "address",
          "name": "_customerAddress",
          "type": "address"
        }
      ],
      "name": "getBalance",
      "outputs": [
        {
          "internalType": "int256",
          "name": "balance",
          "type": "int256"
        }
      ],
      "stateMutability": "view",
      "type": "function"
    },
    {
      "inputs": [],
      "name": "getCustomerAddresses",
      "outputs": [
        {
          "internalType": "address[]",
          "name": "",
          "type": "address[]"
        }
      ],
      "stateMutability": "view",
      "type": "function"
    },
    {
      "inputs": [],
      "name": "getCustomers",
      "outputs": [
        {
          "components": [
            {
              "internalType": "string",
              "name": "name",
              "type": "string"
            },
            {
              "internalType": "bool",
              "name": "exists",
              "type": "bool"
            },
            {
              "internalType": "string",
              "name": "mobileNumber",
              "type": "string"
            }
          ],
          "internalType": "struct DecentralizedKhatabook.Customer[]",
          "name": "",
          "type": "tuple[]"
        }
      ],
      "stateMutability": "view",
      "type": "function"
    },
    {
      "inputs": [
        {
          "internalType": "address",
          "name": "_customerAddress",
          "type": "address"
        }
      ],
      "name": "getEntries",
      "outputs": [
        {
          "components": [
            {
              "internalType": "int256",
              "name": "amount",
              "type": "int256"
            },
            {
              "internalType": "string",
              "name": "description",
              "type": "string"
            },
            {
              "internalType": "uint256",
              "name": "timestamp",
              "type": "uint256"
            },
            {
              "internalType": "bool",
              "name": "settled",
              "type": "bool"
            }
          ],
          "internalType": "struct DecentralizedKhatabook.Entry[]",
          "name": "",
          "type": "tuple[]"
        }
      ],
      "stateMutability": "view",
      "type": "function"
    },
    {
      "inputs": [
        {
          "internalType": "address",
          "name": "_customerAddress",
          "type": "address"
        },
        {
          "internalType": "uint256",
          "name": "_entryIndex",
          "type": "uint256"
        }
      ],
      "name": "settleEntry",
      "outputs": [],
      "stateMutability": "nonpayable",
      "type": "function"
    }
  ],
  "bytecode": "0x608060405234801561001057600080fd5b50612251806100206000396000f3fe608060405234801561001057600080fd5b506004361061009e5760003560e01c8063b877e3a811610066578063b877e3a814610184578063bcb8b231146101a0578063c0ff6054146101bc578063f1ba7127146101da578063f8b2cb4f146101f85761009e565b8063336989ae146100a35780633a47c460146100d557806353b65d40146101055780635608b2e11461013857806386e9e34b14610168575b600080fd5b6100bd60048036038101906100b891906112e4565b610228565b6040516100cc939291906113bc565b60405180910390f35b6100ef60048036038101906100ea9190611437565b61036f565b6040516100fc9190611473565b60405180910390f35b61011f600480360381019061011a919061148e565b6103ae565b60405161012f94939291906114f6565b60405180910390f35b610152600480360381019061014d91906112e4565b610490565b60405161015f91906116de565b60405180910390f35b610182600480360381019061017d919061148e565b61067d565b005b61019e60048036038101906101999190611861565b61085b565b005b6101ba60048036038101906101b591906118d0565b610a16565b005b6101c4610cff565b6040516101d19190611a19565b60405180910390f35b6101e2610d8d565b6040516101ef9190611b54565b60405180910390f35b610212600480360381019061020d91906112e4565b610ff5565b60405161021f9190611b76565b60405180910390f35b600060205280600052604060002060009150905080600001805461024b90611bc0565b80601f016020809104026020016040519081016040528092919081815260200182805461027790611bc0565b80156102c45780601f10610299576101008083540402835291602001916102c4565b820191906000526020600020905b8154815290600101906020018083116102a757829003601f168201915b5050505050908060010160009054906101000a900460ff16908060020180546102ec90611bc0565b80601f016020809104026020016040519081016040528092919081815260200182805461031890611bc0565b80156103655780601f1061033a57610100808354040283529160200191610365565b820191906000526020600020905b81548152906001019060200180831161034857829003601f168201915b5050505050905083565b6002818154811061037f57600080fd5b906000526020600020016000915054906101000a900473ffffffffffffffffffffffffffffffffffffffff1681565b600160205281600052604060002081815481106103ca57600080fd5b9060005260206000209060040201600091509150508060000154908060010180546103f490611bc0565b80601f016020809104026020016040519081016040528092919081815260200182805461042090611bc0565b801561046d5780601f106104425761010080835404028352916020019161046d565b820191906000526020600020905b81548152906001019060200180831161045057829003601f168201915b5050505050908060020154908060030160009054906101000a900460ff16905084565b60606000808373ffffffffffffffffffffffffffffffffffffffff1673ffffffffffffffffffffffffffffffffffffffff16815260200190815260200160002060010160009054906101000a900460ff16610520576040517f08c379a000000000000000000000000000000000000000000000000000000000815260040161051790611c3d565b60405180910390fd5b600160008373ffffffffffffffffffffffffffffffffffffffff1673ffffffffffffffffffffffffffffffffffffffff168152602001908152602001600020805480602002602001604051908101604052809291908181526020016000905b828210156106725783829060005260206000209060040201604051806080016040529081600082015481526020016001820180546105bc90611bc0565b80601f01602080910402602001604051908101604052809291908181526020018280546105e890611bc0565b80156106355780601f1061060a57610100808354040283529160200191610635565b820191906000526020600020905b81548152906001019060200180831161061857829003601f168201915b50505050508152602001600282015481526020016003820160009054906101000a900460ff1615151515815250508152602001906001019061057f565b505050509050919050565b6000808373ffffffffffffffffffffffffffffffffffffffff1673ffffffffffffffffffffffffffffffffffffffff16815260200190815260200160002060010160009054906101000a900460ff1661070b576040517f08c379a000000000000000000000000000000000000000000000000000000000815260040161070290611c3d565b60405180910390fd5b600160008373ffffffffffffffffffffffffffffffffffffffff1673ffffffffffffffffffffffffffffffffffffffff16815260200190815260200160002080549050811061078f576040517f08c379a000000000000000000000000000000000000000000000000000000000815260040161078690611ca9565b60405180910390fd5b60018060008473ffffffffffffffffffffffffffffffffffffffff1673ffffffffffffffffffffffffffffffffffffffff16815260200190815260200160002082815481106107e1576107e0611cc9565b5b906000526020600020906004020160030160006101000a81548160ff0219169083151502179055508173ffffffffffffffffffffffffffffffffffffffff167fb97bec2952c7b1f2062172cff1b1aa6f76774a9a2d722a9378f11ebe0febeca78260405161084f9190611cf8565b60405180910390a25050565b6000808473ffffffffffffffffffffffffffffffffffffffff1673ffffffffffffffffffffffffffffffffffffffff16815260200190815260200160002060010160009054906101000a900460ff166108e9576040517f08c379a00000000000000000000000000000000000000000000000000000000081526004016108e090611c3d565b60405180910390fd5b600160008473ffffffffffffffffffffffffffffffffffffffff1673ffffffffffffffffffffffffffffffffffffffff16815260200190815260200160002060405180608001604052808481526020018381526020014281526020016000151581525090806001815401808255809150506001900390600052602060002090600402016000909190919091506000820151816000015560208201518160010190816109949190611ebf565b506040820151816002015560608201518160030160006101000a81548160ff02191690831515021790555050508273ffffffffffffffffffffffffffffffffffffffff167feb9a02ff500845b62ad15f8cda533b7c433bb01709bfead120b1e41bf2eb38738383604051610a09929190611f91565b60405180910390a2505050565b6000808473ffffffffffffffffffffffffffffffffffffffff1673ffffffffffffffffffffffffffffffffffffffff16815260200190815260200160002060010160009054906101000a900460ff1615610aa5576040517f08c379a0000000000000000000000000000000000000000000000000000000008152600401610a9c9061200d565b60405180910390fd5b600073ffffffffffffffffffffffffffffffffffffffff168373ffffffffffffffffffffffffffffffffffffffff1603610b14576040517f08c379a0000000000000000000000000000000000000000000000000000000008152600401610b0b90612079565b60405180910390fd5b6000825111610b58576040517f08c379a0000000000000000000000000000000000000000000000000000000008152600401610b4f906120e5565b60405180910390fd5b600a815114610b9c576040517f08c379a0000000000000000000000000000000000000000000000000000000008152600401610b9390612151565b60405180910390fd5b6040518060600160405280838152602001600115158152602001828152506000808573ffffffffffffffffffffffffffffffffffffffff1673ffffffffffffffffffffffffffffffffffffffff1681526020019081526020016000206000820151816000019081610c0d9190611ebf565b5060208201518160010160006101000a81548160ff0219169083151502179055506040820151816002019081610c439190611ebf565b509050506002839080600181540180825580915050600190039060005260206000200160009091909190916101000a81548173ffffffffffffffffffffffffffffffffffffffff021916908373ffffffffffffffffffffffffffffffffffffffff1602179055508273ffffffffffffffffffffffffffffffffffffffff167f77eacb4962819f791ebd2750d7be9519622ddcf4c37fe09c6fd33ace5ce32ccb8383604051610cf2929190612171565b60405180910390a2505050565b60606002805480602002602001604051908101604052809291908181526020018280548015610d8357602002820191906000526020600020905b8160009054906101000a900473ffffffffffffffffffffffffffffffffffffffff1673ffffffffffffffffffffffffffffffffffffffff1681526020019060010190808311610d39575b5050505050905090565b6060600060028054905067ffffffffffffffff811115610db057610daf611736565b5b604051908082528060200260200182016040528015610de957816020015b610dd661124f565b815260200190600190039081610dce5790505b50905060005b600280549050811015610fed5760008060028381548110610e1357610e12611cc9565b5b9060005260206000200160009054906101000a900473ffffffffffffffffffffffffffffffffffffffff1673ffffffffffffffffffffffffffffffffffffffff1673ffffffffffffffffffffffffffffffffffffffff168152602001908152602001600020604051806060016040529081600082018054610e9390611bc0565b80601f0160208091040260200160405190810160405280929190818152602001828054610ebf90611bc0565b8015610f0c5780601f10610ee157610100808354040283529160200191610f0c565b820191906000526020600020905b815481529060010190602001808311610eef57829003601f168201915b505050505081526020016001820160009054906101000a900460ff16151515158152602001600282018054610f4090611bc0565b80601f0160208091040260200160405190810160405280929190818152602001828054610f6c90611bc0565b8015610fb95780601f10610f8e57610100808354040283529160200191610fb9565b820191906000526020600020905b815481529060010190602001808311610f9c57829003601f168201915b505050505081525050828281518110610fd557610fd4611cc9565b5b60200260200101819052508080600101915050610def565b508091505090565b60008060008373ffffffffffffffffffffffffffffffffffffffff1673ffffffffffffffffffffffffffffffffffffffff16815260200190815260200160002060010160009054906101000a900460ff16611085576040517f08c379a000000000000000000000000000000000000000000000000000000000815260040161107c90611c3d565b60405180910390fd5b6000600160008473ffffffffffffffffffffffffffffffffffffffff1673ffffffffffffffffffffffffffffffffffffffff168152602001908152602001600020805480602002602001604051908101604052809291908181526020016000905b828210156111d957838290600052602060002090600402016040518060800160405290816000820154815260200160018201805461112390611bc0565b80601f016020809104026020016040519081016040528092919081815260200182805461114f90611bc0565b801561119c5780601f106111715761010080835404028352916020019161119c565b820191906000526020600020905b81548152906001019060200180831161117f57829003601f168201915b50505050508152602001600282015481526020016003820160009054906101000a900460ff161515151581525050815260200190600101906110e6565b50505050905060005b8151811015611248578181815181106111fe576111fd611cc9565b5b60200260200101516060015161123b5781818151811061122157611220611cc9565b5b6020026020010151600001518361123891906121d7565b92505b80806001019150506111e2565b5050919050565b604051806060016040528060608152602001600015158152602001606081525090565b6000604051905090565b600080fd5b600080fd5b600073ffffffffffffffffffffffffffffffffffffffff82169050919050565b60006112b182611286565b9050919050565b6112c1816112a6565b81146112cc57600080fd5b50565b6000813590506112de816112b8565b92915050565b6000602082840312156112fa576112f961127c565b5b6000611308848285016112cf565b91505092915050565b600081519050919050565b600082825260208201905092915050565b60005b8381101561134b578082015181840152602081019050611330565b60008484015250505050565b6000601f19601f8301169050919050565b600061137382611311565b61137d818561131c565b935061138d81856020860161132d565b61139681611357565b840191505092915050565b60008115159050919050565b6113b6816113a1565b82525050565b600060608201905081810360008301526113d68186611368565b90506113e560208301856113ad565b81810360408301526113f78184611368565b9050949350505050565b6000819050919050565b61141481611401565b811461141f57600080fd5b50565b6000813590506114318161140b565b92915050565b60006020828403121561144d5761144c61127c565b5b600061145b84828501611422565b91505092915050565b61146d816112a6565b82525050565b60006020820190506114886000830184611464565b92915050565b600080604083850312156114a5576114a461127c565b5b60006114b3858286016112cf565b92505060206114c485828601611422565b9150509250929050565b6000819050919050565b6114e1816114ce565b82525050565b6114f081611401565b82525050565b600060808201905061150b60008301876114d8565b818103602083015261151d8186611368565b905061152c60408301856114e7565b61153960608301846113ad565b95945050505050565b600081519050919050565b600082825260208201905092915050565b6000819050602082019050919050565b611577816114ce565b82525050565b600082825260208201905092915050565b600061159982611311565b6115a3818561157d565b93506115b381856020860161132d565b6115bc81611357565b840191505092915050565b6115d081611401565b82525050565b6115df816113a1565b82525050565b60006080830160008301516115fd600086018261156e565b5060208301518482036020860152611615828261158e565b915050604083015161162a60408601826115c7565b50606083015161163d60608601826115d6565b508091505092915050565b600061165483836115e5565b905092915050565b6000602082019050919050565b600061167482611542565b61167e818561154d565b9350836020820285016116908561155e565b8060005b858110156116cc57848403895281516116ad8582611648565b94506116b88361165c565b925060208a01995050600181019050611694565b50829750879550505050505092915050565b600060208201905081810360008301526116f88184611669565b905092915050565b611709816114ce565b811461171457600080fd5b50565b60008135905061172681611700565b92915050565b600080fd5b600080fd5b7f4e487b7100000000000000000000000000000000000000000000000000000000600052604160045260246000fd5b61176e82611357565b810181811067ffffffffffffffff8211171561178d5761178c611736565b5b80604052505050565b60006117a0611272565b90506117ac8282611765565b919050565b600067ffffffffffffffff8211156117cc576117cb611736565b5b6117d582611357565b9050602081019050919050565b82818337600083830152505050565b60006118046117ff846117b1565b611796565b9050828152602081018484840111156118205761181f611731565b5b61182b8482856117e2565b509392505050565b600082601f8301126118485761184761172c565b5b81356118588482602086016117f1565b91505092915050565b60008060006060848603121561187a5761187961127c565b5b6000611888868287016112cf565b935050602061189986828701611717565b925050604084013567ffffffffffffffff8111156118ba576118b9611281565b5b6118c686828701611833565b9150509250925092565b6000806000606084860312156118e9576118e861127c565b5b60006118f7868287016112cf565b935050602084013567ffffffffffffffff81111561191857611917611281565b5b61192486828701611833565b925050604084013567ffffffffffffffff81111561194557611944611281565b5b61195186828701611833565b9150509250925092565b600081519050919050565b600082825260208201905092915050565b6000819050602082019050919050565b611990816112a6565b82525050565b60006119a28383611987565b60208301905092915050565b6000602082019050919050565b60006119c68261195b565b6119d08185611966565b93506119db83611977565b8060005b83811015611a0c5781516119f38882611996565b97506119fe836119ae565b9250506001810190506119df565b5085935050505092915050565b60006020820190508181036000830152611a3381846119bb565b905092915050565b600081519050919050565b600082825260208201905092915050565b6000819050602082019050919050565b60006060830160008301518482036000860152611a84828261158e565b9150506020830151611a9960208601826115d6565b5060408301518482036040860152611ab1828261158e565b9150508091505092915050565b6000611aca8383611a67565b905092915050565b6000602082019050919050565b6000611aea82611a3b565b611af48185611a46565b935083602082028501611b0685611a57565b8060005b85811015611b425784840389528151611b238582611abe565b9450611b2e83611ad2565b925060208a01995050600181019050611b0a565b50829750879550505050505092915050565b60006020820190508181036000830152611b6e8184611adf565b905092915050565b6000602082019050611b8b60008301846114d8565b92915050565b7f4e487b7100000000000000000000000000000000000000000000000000000000600052602260045260246000fd5b60006002820490506001821680611bd857607f821691505b602082108103611beb57611bea611b91565b5b50919050565b7f437573746f6d657220646f6573206e6f74206578697374000000000000000000600082015250565b6000611c2760178361131c565b9150611c3282611bf1565b602082019050919050565b60006020820190508181036000830152611c5681611c1a565b9050919050565b7f496e76616c696420656e74727920696e64657800000000000000000000000000600082015250565b6000611c9360138361131c565b9150611c9e82611c5d565b602082019050919050565b60006020820190508181036000830152611cc281611c86565b9050919050565b7f4e487b7100000000000000000000000000000000000000000000000000000000600052603260045260246000fd5b6000602082019050611d0d60008301846114e7565b92915050565b60008190508160005260206000209050919050565b60006020601f8301049050919050565b600082821b905092915050565b600060088302611d757fffffffffffffffffffffffffffffffffffffffffffffffffffffffffffffffff82611d38565b611d7f8683611d38565b95508019841693508086168417925050509392505050565b6000819050919050565b6000611dbc611db7611db284611401565b611d97565b611401565b9050919050565b6000819050919050565b611dd683611da1565b611dea611de282611dc3565b848454611d45565b825550505050565b600090565b611dff611df2565b611e0a818484611dcd565b505050565b5b81811015611e2e57611e23600082611df7565b600181019050611e10565b5050565b601f821115611e7357611e4481611d13565b611e4d84611d28565b81016020851015611e5c578190505b611e70611e6885611d28565b830182611e0f565b50505b505050565b600082821c905092915050565b6000611e9660001984600802611e78565b1980831691505092915050565b6000611eaf8383611e85565b9150826002028217905092915050565b611ec882611311565b67ffffffffffffffff811115611ee157611ee0611736565b5b611eeb8254611bc0565b611ef6828285611e32565b600060209050601f831160018114611f295760008415611f17578287015190505b611f218582611ea3565b865550611f89565b601f198416611f3786611d13565b60005b82811015611f5f57848901518255600182019150602085019450602081019050611f3a565b86831015611f7c5784890151611f78601f891682611e85565b8355505b6001600288020188555050505b505050505050565b6000604082019050611fa660008301856114d8565b8181036020830152611fb88184611368565b90509392505050565b7f437573746f6d657220616c726561647920657869737473000000000000000000600082015250565b6000611ff760178361131c565b915061200282611fc1565b602082019050919050565b6000602082019050818103600083015261202681611fea565b9050919050565b7f496e76616c696420637573746f6d657220616464726573730000000000000000600082015250565b600061206360188361131c565b915061206e8261202d565b602082019050919050565b6000602082019050818103600083015261209281612056565b9050919050565b7f4e616d652063616e6e6f7420626520656d707479000000000000000000000000600082015250565b60006120cf60148361131c565b91506120da82612099565b602082019050919050565b600060208201905081810360008301526120fe816120c2565b9050919050565b7f4d6f62696c65206e756d626572206d7573742062652031302064696769747300600082015250565b600061213b601f8361131c565b915061214682612105565b602082019050919050565b6000602082019050818103600083015261216a8161212e565b9050919050565b6000604082019050818103600083015261218b8185611368565b9050818103602083015261219f8184611368565b90509392505050565b7f4e487b7100000000000000000000000000000000000000000000000000000000600052601160045260246000fd5b60006121e2826114ce565b91506121ed836114ce565b925082820190508281121560008312168382126000841215161715612215576122146121a8565b5b9291505056fea2646970667358221220c7b5082d1cb403b0a53f2c6fdff7cc02dafb4c26aa8351234f8f3952788a384664736f6c63430008180033",
  "linkReferences": {},
  "deployedLinkReferences": {}
}